{
  "data": {
    "bytecode": {
      "linkReferences": {},
      "object": "6080604052600160045534801561001557600080fd5b50610039730b9d5d9136855f6fec3c0993fee6e9ce8a2978466100fa60201b60201c565b73e52f4aedab0581df41fb5aba4d46dda213c962f3600660006101000a81548173ffffffffffffffffffffffffffffffffffffffff021916908373ffffffffffffffffffffffffffffffffffffffff1602179055506100bf600660009054906101000a900473ffffffffffffffffffffffffffffffffffffffff1661013e60201b60201c565b7f373764396234646662343936343933343830623030343064356162626564626460078190555067016345785d8a0000600881905550610182565b80600260006101000a81548173ffffffffffffffffffffffffffffffffffffffff021916908373ffffffffffffffffffffffffffffffffffffffff16021790555050565b80600360006101000a81548173ffffffffffffffffffffffffffffffffffffffff021916908373ffffffffffffffffffffffffffffffffffffffff16021790555050565b6119f4806101916000396000f3fe608060405234801561001057600080fd5b50600436106100405760003560e01c80622b484314610045578063581d869f146100755780637a3c065914610093575b600080fd5b61005f600480360381019061005a9190610e7f565b6100af565b60405161006c9190610ee1565b60405180910390f35b61007d61017e565b60405161008a9190610f84565b60405180910390f35b6100ad60048036038101906100a891906110a9565b61020c565b005b6000806100c660075430637a3c065960e01b6103c3565b90506101126040518060400160405280600b81526020017f796f75747562655f75726c00000000000000000000000000000000000000000081525084836103f49092919063ffffffff16565b600061012082600854610427565b905033600a600083815260200190815260200160002060006101000a81548173ffffffffffffffffffffffffffffffffffffffff021916908373ffffffffffffffffffffffffffffffffffffffff1602179055508092505050919050565b6009805461018b90611206565b80601f01602080910402602001604051908101604052809291908181526020018280546101b790611206565b80156102045780601f106101d957610100808354040283529160200191610204565b820191906000526020600020905b8154815290600101906020018083116101e757829003601f168201915b505050505081565b866005600082815260200190815260200160002060009054906101000a900473ffffffffffffffffffffffffffffffffffffffff1673ffffffffffffffffffffffffffffffffffffffff163373ffffffffffffffffffffffffffffffffffffffff16146102ae576040517f08c379a00000000000000000000000000000000000000000000000000000000081526004016102a5906112aa565b60405180910390fd5b6005600082815260200190815260200160002060006101000a81549073ffffffffffffffffffffffffffffffffffffffff0219169055807f7cc135e0cebb02c3480ae5d74d377283180a2601f8f644edf7987b009316c63a60405160405180910390a26000600a60008a815260200190815260200160002060009054906101000a900473ffffffffffffffffffffffffffffffffffffffff169050876009908051906020019061035f929190610bfb565b508073ffffffffffffffffffffffffffffffffffffffff167f8eeec427668454875e8c1fb3682b9b262f72026a230054683d8f30edf93326c28989898989896040516103b0969594939291906112d9565b60405180910390a2505050505050505050565b6103cb610c81565b6103d3610c81565b6103ea8585858461045e909392919063ffffffff16565b9150509392505050565b61040b82846080015161050e90919063ffffffff16565b61042281846080015161050e90919063ffffffff16565b505050565b6000610456600360009054906101000a900473ffffffffffffffffffffffffffffffffffffffff168484610533565b905092915050565b610466610c81565b61047685608001516101006105ff565b508385600001818152505082856020019073ffffffffffffffffffffffffffffffffffffffff16908173ffffffffffffffffffffffffffffffffffffffff16815250508185604001907bffffffffffffffffffffffffffffffffffffffffffffffffffffffff191690817bffffffffffffffffffffffffffffffffffffffffffffffffffffffff191681525050849050949350505050565b61051b8260038351610669565b61052e81836107ee90919063ffffffff16565b505050565b6000806004549050600181610548919061138c565b6004819055506000634042994660e01b60008087600001513089604001518760018c60800151600001516040516024016105899897969594939291906114b3565b604051602081830303815290604052907bffffffffffffffffffffffffffffffffffffffffffffffffffffffff19166020820180517bffffffffffffffffffffffffffffffffffffffffffffffffffffffff838183161783525050505090506105f486838684610810565b925050509392505050565b610607610cee565b60006020836106169190611567565b14610642576020826106289190611567565b60206106349190611598565b8261063f919061138c565b91505b81836020018181525050604051808452600081528281016020016040525082905092915050565b60178167ffffffffffffffff16116106a05761069a8160058460ff16901b60ff1617846109a590919063ffffffff16565b506107e9565b60ff8167ffffffffffffffff16116106f6576106cf601860058460ff16901b17846109a590919063ffffffff16565b506106f08167ffffffffffffffff166001856109c59092919063ffffffff16565b506107e8565b61ffff8167ffffffffffffffff161161074d57610726601960058460ff16901b17846109a590919063ffffffff16565b506107478167ffffffffffffffff166002856109c59092919063ffffffff16565b506107e7565b63ffffffff8167ffffffffffffffff16116107a65761077f601a60058460ff16901b17846109a590919063ffffffff16565b506107a08167ffffffffffffffff166004856109c59092919063ffffffff16565b506107e6565b6107c3601b60058460ff16901b17846109a590919063ffffffff16565b506107e48167ffffffffffffffff166008856109c59092919063ffffffff16565b505b5b5b5b505050565b6107f6610cee565b610808838460000151518485516109e7565b905092915050565b60003084604051602001610825929190611685565b604051602081830303815290604052805190602001209050846005600083815260200190815260200160002060006101000a81548173ffffffffffffffffffffffffffffffffffffffff021916908373ffffffffffffffffffffffffffffffffffffffff160217905550807fb5e6e01e79f91267dc17b4e6314d5d4d03593d2ceee0fbb452b750bd70ea5af960405160405180910390a2600260009054906101000a900473ffffffffffffffffffffffffffffffffffffffff1673ffffffffffffffffffffffffffffffffffffffff16634000aea08685856040518463ffffffff1660e01b815260040161091b939291906116b1565b6020604051808303816000875af115801561093a573d6000803e3d6000fd5b505050506040513d601f19601f8201168201806040525081019061095e9190611727565b61099d576040517f08c379a0000000000000000000000000000000000000000000000000000000008152600401610994906117c6565b60405180910390fd5b949350505050565b6109ad610cee565b6109bd8384600001515184610ad6565b905092915050565b6109cd610cee565b6109de848560000151518585610b2d565b90509392505050565b6109ef610cee565b82518211156109fd57600080fd5b84602001518285610a0e919061138c565b1115610a4357610a42856002610a3388602001518887610a2e919061138c565b610bbb565b610a3d91906117e6565b610bd7565b5b600080865180518760208301019350808887011115610a625787860182525b60208701925050505b60208410610aa95780518252602082610a84919061138c565b9150602081610a93919061138c565b9050602084610aa29190611598565b9350610a6b565b60006001856020036101000a03905080198251168184511681811785525050508692505050949350505050565b610ade610cee565b83602001518310610b0457610b038460028660200151610afe91906117e6565b610bd7565b5b8351805160208583010184815381861415610b20576001820183525b5050508390509392505050565b610b35610cee565b84602001518483610b46919061138c565b1115610b6e57610b6d8560028685610b5e919061138c565b610b6891906117e6565b610bd7565b5b6000600183610100610b809190611973565b610b8a9190611598565b90508551838682010185831982511617815281518588011115610bad5784870182525b505085915050949350505050565b600081831115610bcd57829050610bd1565b8190505b92915050565b600082600001519050610bea83836105ff565b50610bf583826107ee565b50505050565b828054610c0790611206565b90600052602060002090601f016020900481019282610c295760008555610c70565b82601f10610c4257805160ff1916838001178555610c70565b82800160010185558215610c70579182015b82811115610c6f578251825591602001919060010190610c54565b5b509050610c7d9190610d08565b5090565b6040518060a0016040528060008019168152602001600073ffffffffffffffffffffffffffffffffffffffff16815260200160007bffffffffffffffffffffffffffffffffffffffffffffffffffffffff1916815260200160008152602001610ce8610cee565b81525090565b604051806040016040528060608152602001600081525090565b5b80821115610d21576000816000905550600101610d09565b5090565b6000604051905090565b600080fd5b600080fd5b600080fd5b600080fd5b6000601f19601f8301169050919050565b7f4e487b7100000000000000000000000000000000000000000000000000000000600052604160045260246000fd5b610d8c82610d43565b810181811067ffffffffffffffff82111715610dab57610daa610d54565b5b80604052505050565b6000610dbe610d25565b9050610dca8282610d83565b919050565b600067ffffffffffffffff821115610dea57610de9610d54565b5b610df382610d43565b9050602081019050919050565b82818337600083830152505050565b6000610e22610e1d84610dcf565b610db4565b905082815260208101848484011115610e3e57610e3d610d3e565b5b610e49848285610e00565b509392505050565b600082601f830112610e6657610e65610d39565b5b8135610e76848260208601610e0f565b91505092915050565b600060208284031215610e9557610e94610d2f565b5b600082013567ffffffffffffffff811115610eb357610eb2610d34565b5b610ebf84828501610e51565b91505092915050565b6000819050919050565b610edb81610ec8565b82525050565b6000602082019050610ef66000830184610ed2565b92915050565b600081519050919050565b600082825260208201905092915050565b60005b83811015610f36578082015181840152602081019050610f1b565b83811115610f45576000848401525b50505050565b6000610f5682610efc565b610f608185610f07565b9350610f70818560208601610f18565b610f7981610d43565b840191505092915050565b60006020820190508181036000830152610f9e8184610f4b565b905092915050565b610faf81610ec8565b8114610fba57600080fd5b50565b600081359050610fcc81610fa6565b92915050565b600067ffffffffffffffff821115610fed57610fec610d54565b5b610ff682610d43565b9050602081019050919050565b600061101661101184610fd2565b610db4565b90508281526020810184848401111561103257611031610d3e565b5b61103d848285610e00565b509392505050565b600082601f83011261105a57611059610d39565b5b813561106a848260208601611003565b91505092915050565b6000819050919050565b61108681611073565b811461109157600080fd5b50565b6000813590506110a38161107d565b92915050565b600080600080600080600060e0888a0312156110c8576110c7610d2f565b5b60006110d68a828b01610fbd565b975050602088013567ffffffffffffffff8111156110f7576110f6610d34565b5b6111038a828b01611045565b965050604088013567ffffffffffffffff81111561112457611123610d34565b5b6111308a828b01611045565b955050606088013567ffffffffffffffff81111561115157611150610d34565b5b61115d8a828b01611045565b945050608088013567ffffffffffffffff81111561117e5761117d610d34565b5b61118a8a828b01611045565b93505060a061119b8a828b01611094565b92505060c088013567ffffffffffffffff8111156111bc576111bb610d34565b5b6111c88a828b01611045565b91505092959891949750929550565b7f4e487b7100000000000000000000000000000000000000000000000000000000600052602260045260246000fd5b6000600282049050600182168061121e57607f821691505b60208210811415611232576112316111d7565b5b50919050565b7f536f75726365206d75737420626520746865206f7261636c65206f662074686560008201527f2072657175657374000000000000000000000000000000000000000000000000602082015250565b6000611294602883610f07565b915061129f82611238565b604082019050919050565b600060208201905081810360008301526112c381611287565b9050919050565b6112d381611073565b82525050565b600060c08201905081810360008301526112f38189610f4b565b905081810360208301526113078188610f4b565b9050818103604083015261131b8187610f4b565b9050818103606083015261132f8186610f4b565b905061133e60808301856112ca565b81810360a08301526113508184610f4b565b9050979650505050505050565b7f4e487b7100000000000000000000000000000000000000000000000000000000600052601160045260246000fd5b600061139782611073565b91506113a283611073565b9250827fffffffffffffffffffffffffffffffffffffffffffffffffffffffffffffffff038211156113d7576113d661135d565b5b828201905092915050565b600073ffffffffffffffffffffffffffffffffffffffff82169050919050565b600061140d826113e2565b9050919050565b61141d81611402565b82525050565b60007fffffffff0000000000000000000000000000000000000000000000000000000082169050919050565b61145881611423565b82525050565b600081519050919050565b600082825260208201905092915050565b60006114858261145e565b61148f8185611469565b935061149f818560208601610f18565b6114a881610d43565b840191505092915050565b6000610100820190506114c9600083018b611414565b6114d6602083018a6112ca565b6114e36040830189610ed2565b6114f06060830188611414565b6114fd608083018761144f565b61150a60a08301866112ca565b61151760c08301856112ca565b81810360e0830152611529818461147a565b90509998505050505050505050565b7f4e487b7100000000000000000000000000000000000000000000000000000000600052601260045260246000fd5b600061157282611073565b915061157d83611073565b92508261158d5761158c611538565b5b828206905092915050565b60006115a382611073565b91506115ae83611073565b9250828210156115c1576115c061135d565b5b828203905092915050565b6000819050919050565b60006115f16115ec6115e7846113e2565b6115cc565b6113e2565b9050919050565b6000611603826115d6565b9050919050565b6000611615826115f8565b9050919050565b60008160601b9050919050565b60006116348261161c565b9050919050565b600061164682611629565b9050919050565b61165e6116598261160a565b61163b565b82525050565b6000819050919050565b61167f61167a82611073565b611664565b82525050565b6000611691828561164d565b6014820191506116a1828461166e565b6020820191508190509392505050565b60006060820190506116c66000830186611414565b6116d360208301856112ca565b81810360408301526116e5818461147a565b9050949350505050565b60008115159050919050565b611704816116ef565b811461170f57600080fd5b50565b600081519050611721816116fb565b92915050565b60006020828403121561173d5761173c610d2f565b5b600061174b84828501611712565b91505092915050565b7f756e61626c6520746f207472616e73666572416e6443616c6c20746f206f726160008201527f636c650000000000000000000000000000000000000000000000000000000000602082015250565b60006117b0602383610f07565b91506117bb82611754565b604082019050919050565b600060208201905081810360008301526117df816117a3565b9050919050565b60006117f182611073565b91506117fc83611073565b9250817fffffffffffffffffffffffffffffffffffffffffffffffffffffffffffffffff04831182151516156118355761183461135d565b5b828202905092915050565b60008160011c9050919050565b6000808291508390505b6001851115611897578086048111156118735761187261135d565b5b60018516156118825780820291505b808102905061189085611840565b9450611857565b94509492505050565b6000826118b0576001905061196c565b816118be576000905061196c565b81600181146118d457600281146118de5761190d565b600191505061196c565b60ff8411156118f0576118ef61135d565b5b8360020a9150848211156119075761190661135d565b5b5061196c565b5060208310610133831016604e8410600b84101617156119425782820a90508381111561193d5761193c61135d565b5b61196c565b61194f848484600161184d565b925090508184048111156119665761196561135d565b5b81810290505b9392505050565b600061197e82611073565b915061198983611073565b92506119b67fffffffffffffffffffffffffffffffffffffffffffffffffffffffffffffffff84846118a0565b90509291505056fea2646970667358221220ce865200b102d60c5ecdc996e5344097a36d3840c1043a2e2cfb8467b3f509cc64736f6c634300080b0033",
      "opcodes": "PUSH1 0x80 PUSH1 0x40 MSTORE PUSH1 0x1 PUSH1 0x4 SSTORE CALLVALUE DUP1 ISZERO PUSH2 0x15 JUMPI PUSH1 0x0 DUP1 REVERT JUMPDEST POP PUSH2 0x39 PUSH20 0xB9D5D9136855F6FEC3C0993FEE6E9CE8A297846 PUSH2 0xFA PUSH1 0x20 SHL PUSH1 0x20 SHR JUMP JUMPDEST PUSH20 0xE52F4AEDAB0581DF41FB5ABA4D46DDA213C962F3 PUSH1 0x6 PUSH1 0x0 PUSH2 0x100 EXP DUP2 SLOAD DUP2 PUSH20 0xFFFFFFFFFFFFFFFFFFFFFFFFFFFFFFFFFFFFFFFF MUL NOT AND SWAP1 DUP4 PUSH20 0xFFFFFFFFFFFFFFFFFFFFFFFFFFFFFFFFFFFFFFFF AND MUL OR SWAP1 SSTORE POP PUSH2 0xBF PUSH1 0x6 PUSH1 0x0 SWAP1 SLOAD SWAP1 PUSH2 0x100 EXP SWAP1 DIV PUSH20 0xFFFFFFFFFFFFFFFFFFFFFFFFFFFFFFFFFFFFFFFF AND PUSH2 0x13E PUSH1 0x20 SHL PUSH1 0x20 SHR JUMP JUMPDEST PUSH32 0x3737643962346466623439363439333438306230303430643561626265646264 PUSH1 0x7 DUP2 SWAP1 SSTORE POP PUSH8 0x16345785D8A0000 PUSH1 0x8 DUP2 SWAP1 SSTORE POP PUSH2 0x182 JUMP JUMPDEST DUP1 PUSH1 0x2 PUSH1 0x0 PUSH2 0x100 EXP DUP2 SLOAD DUP2 PUSH20 0xFFFFFFFFFFFFFFFFFFFFFFFFFFFFFFFFFFFFFFFF MUL NOT AND SWAP1 DUP4 PUSH20 0xFFFFFFFFFFFFFFFFFFFFFFFFFFFFFFFFFFFFFFFF AND MUL OR SWAP1 SSTORE POP POP JUMP JUMPDEST DUP1 PUSH1 0x3 PUSH1 0x0 PUSH2 0x100 EXP DUP2 SLOAD DUP2 PUSH20 0xFFFFFFFFFFFFFFFFFFFFFFFFFFFFFFFFFFFFFFFF MUL NOT AND SWAP1 DUP4 PUSH20 0xFFFFFFFFFFFFFFFFFFFFFFFFFFFFFFFFFFFFFFFF AND MUL OR SWAP1 SSTORE POP POP JUMP JUMPDEST PUSH2 0x19F4 DUP1 PUSH2 0x191 PUSH1 0x0 CODECOPY PUSH1 0x0 RETURN INVALID PUSH1 0x80 PUSH1 0x40 MSTORE CALLVALUE DUP1 ISZERO PUSH2 0x10 JUMPI PUSH1 0x0 DUP1 REVERT JUMPDEST POP PUSH1 0x4 CALLDATASIZE LT PUSH2 0x40 JUMPI PUSH1 0x0 CALLDATALOAD PUSH1 0xE0 SHR DUP1 PUSH3 0x2B4843 EQ PUSH2 0x45 JUMPI DUP1 PUSH4 0x581D869F EQ PUSH2 0x75 JUMPI DUP1 PUSH4 0x7A3C0659 EQ PUSH2 0x93 JUMPI JUMPDEST PUSH1 0x0 DUP1 REVERT JUMPDEST PUSH2 0x5F PUSH1 0x4 DUP1 CALLDATASIZE SUB DUP2 ADD SWAP1 PUSH2 0x5A SWAP2 SWAP1 PUSH2 0xE7F JUMP JUMPDEST PUSH2 0xAF JUMP JUMPDEST PUSH1 0x40 MLOAD PUSH2 0x6C SWAP2 SWAP1 PUSH2 0xEE1 JUMP JUMPDEST PUSH1 0x40 MLOAD DUP1 SWAP2 SUB SWAP1 RETURN JUMPDEST PUSH2 0x7D PUSH2 0x17E JUMP JUMPDEST PUSH1 0x40 MLOAD PUSH2 0x8A SWAP2 SWAP1 PUSH2 0xF84 JUMP JUMPDEST PUSH1 0x40 MLOAD DUP1 SWAP2 SUB SWAP1 RETURN JUMPDEST PUSH2 0xAD PUSH1 0x4 DUP1 CALLDATASIZE SUB DUP2 ADD SWAP1 PUSH2 0xA8 SWAP2 SWAP1 PUSH2 0x10A9 JUMP JUMPDEST PUSH2 0x20C JUMP JUMPDEST STOP JUMPDEST PUSH1 0x0 DUP1 PUSH2 0xC6 PUSH1 0x7 SLOAD ADDRESS PUSH4 0x7A3C0659 PUSH1 0xE0 SHL PUSH2 0x3C3 JUMP JUMPDEST SWAP1 POP PUSH2 0x112 PUSH1 0x40 MLOAD DUP1 PUSH1 0x40 ADD PUSH1 0x40 MSTORE DUP1 PUSH1 0xB DUP2 MSTORE PUSH1 0x20 ADD PUSH32 0x796F75747562655F75726C000000000000000000000000000000000000000000 DUP2 MSTORE POP DUP5 DUP4 PUSH2 0x3F4 SWAP1 SWAP3 SWAP2 SWAP1 PUSH4 0xFFFFFFFF AND JUMP JUMPDEST PUSH1 0x0 PUSH2 0x120 DUP3 PUSH1 0x8 SLOAD PUSH2 0x427 JUMP JUMPDEST SWAP1 POP CALLER PUSH1 0xA PUSH1 0x0 DUP4 DUP2 MSTORE PUSH1 0x20 ADD SWAP1 DUP2 MSTORE PUSH1 0x20 ADD PUSH1 0x0 KECCAK256 PUSH1 0x0 PUSH2 0x100 EXP DUP2 SLOAD DUP2 PUSH20 0xFFFFFFFFFFFFFFFFFFFFFFFFFFFFFFFFFFFFFFFF MUL NOT AND SWAP1 DUP4 PUSH20 0xFFFFFFFFFFFFFFFFFFFFFFFFFFFFFFFFFFFFFFFF AND MUL OR SWAP1 SSTORE POP DUP1 SWAP3 POP POP POP SWAP2 SWAP1 POP JUMP JUMPDEST PUSH1 0x9 DUP1 SLOAD PUSH2 0x18B SWAP1 PUSH2 0x1206 JUMP JUMPDEST DUP1 PUSH1 0x1F ADD PUSH1 0x20 DUP1 SWAP2 DIV MUL PUSH1 0x20 ADD PUSH1 0x40 MLOAD SWAP1 DUP2 ADD PUSH1 0x40 MSTORE DUP1 SWAP3 SWAP2 SWAP1 DUP2 DUP2 MSTORE PUSH1 0x20 ADD DUP3 DUP1 SLOAD PUSH2 0x1B7 SWAP1 PUSH2 0x1206 JUMP JUMPDEST DUP1 ISZERO PUSH2 0x204 JUMPI DUP1 PUSH1 0x1F LT PUSH2 0x1D9 JUMPI PUSH2 0x100 DUP1 DUP4 SLOAD DIV MUL DUP4 MSTORE SWAP2 PUSH1 0x20 ADD SWAP2 PUSH2 0x204 JUMP JUMPDEST DUP3 ADD SWAP2 SWAP1 PUSH1 0x0 MSTORE PUSH1 0x20 PUSH1 0x0 KECCAK256 SWAP1 JUMPDEST DUP2 SLOAD DUP2 MSTORE SWAP1 PUSH1 0x1 ADD SWAP1 PUSH1 0x20 ADD DUP1 DUP4 GT PUSH2 0x1E7 JUMPI DUP3 SWAP1 SUB PUSH1 0x1F AND DUP3 ADD SWAP2 JUMPDEST POP POP POP POP POP DUP2 JUMP JUMPDEST DUP7 PUSH1 0x5 PUSH1 0x0 DUP3 DUP2 MSTORE PUSH1 0x20 ADD SWAP1 DUP2 MSTORE PUSH1 0x20 ADD PUSH1 0x0 KECCAK256 PUSH1 0x0 SWAP1 SLOAD SWAP1 PUSH2 0x100 EXP SWAP1 DIV PUSH20 0xFFFFFFFFFFFFFFFFFFFFFFFFFFFFFFFFFFFFFFFF AND PUSH20 0xFFFFFFFFFFFFFFFFFFFFFFFFFFFFFFFFFFFFFFFF AND CALLER PUSH20 0xFFFFFFFFFFFFFFFFFFFFFFFFFFFFFFFFFFFFFFFF AND EQ PUSH2 0x2AE JUMPI PUSH1 0x40 MLOAD PUSH32 0x8C379A000000000000000000000000000000000000000000000000000000000 DUP2 MSTORE PUSH1 0x4 ADD PUSH2 0x2A5 SWAP1 PUSH2 0x12AA JUMP JUMPDEST PUSH1 0x40 MLOAD DUP1 SWAP2 SUB SWAP1 REVERT JUMPDEST PUSH1 0x5 PUSH1 0x0 DUP3 DUP2 MSTORE PUSH1 0x20 ADD SWAP1 DUP2 MSTORE PUSH1 0x20 ADD PUSH1 0x0 KECCAK256 PUSH1 0x0 PUSH2 0x100 EXP DUP2 SLOAD SWAP1 PUSH20 0xFFFFFFFFFFFFFFFFFFFFFFFFFFFFFFFFFFFFFFFF MUL NOT AND SWAP1 SSTORE DUP1 PUSH32 0x7CC135E0CEBB02C3480AE5D74D377283180A2601F8F644EDF7987B009316C63A PUSH1 0x40 MLOAD PUSH1 0x40 MLOAD DUP1 SWAP2 SUB SWAP1 LOG2 PUSH1 0x0 PUSH1 0xA PUSH1 0x0 DUP11 DUP2 MSTORE PUSH1 0x20 ADD SWAP1 DUP2 MSTORE PUSH1 0x20 ADD PUSH1 0x0 KECCAK256 PUSH1 0x0 SWAP1 SLOAD SWAP1 PUSH2 0x100 EXP SWAP1 DIV PUSH20 0xFFFFFFFFFFFFFFFFFFFFFFFFFFFFFFFFFFFFFFFF AND SWAP1 POP DUP8 PUSH1 0x9 SWAP1 DUP1 MLOAD SWAP1 PUSH1 0x20 ADD SWAP1 PUSH2 0x35F SWAP3 SWAP2 SWAP1 PUSH2 0xBFB JUMP JUMPDEST POP DUP1 PUSH20 0xFFFFFFFFFFFFFFFFFFFFFFFFFFFFFFFFFFFFFFFF AND PUSH32 0x8EEEC427668454875E8C1FB3682B9B262F72026A230054683D8F30EDF93326C2 DUP10 DUP10 DUP10 DUP10 DUP10 DUP10 PUSH1 0x40 MLOAD PUSH2 0x3B0 SWAP7 SWAP6 SWAP5 SWAP4 SWAP3 SWAP2 SWAP1 PUSH2 0x12D9 JUMP JUMPDEST PUSH1 0x40 MLOAD DUP1 SWAP2 SUB SWAP1 LOG2 POP POP POP POP POP POP POP POP POP JUMP JUMPDEST PUSH2 0x3CB PUSH2 0xC81 JUMP JUMPDEST PUSH2 0x3D3 PUSH2 0xC81 JUMP JUMPDEST PUSH2 0x3EA DUP6 DUP6 DUP6 DUP5 PUSH2 0x45E SWAP1 SWAP4 SWAP3 SWAP2 SWAP1 PUSH4 0xFFFFFFFF AND JUMP JUMPDEST SWAP2 POP POP SWAP4 SWAP3 POP POP POP JUMP JUMPDEST PUSH2 0x40B DUP3 DUP5 PUSH1 0x80 ADD MLOAD PUSH2 0x50E SWAP1 SWAP2 SWAP1 PUSH4 0xFFFFFFFF AND JUMP JUMPDEST PUSH2 0x422 DUP2 DUP5 PUSH1 0x80 ADD MLOAD PUSH2 0x50E SWAP1 SWAP2 SWAP1 PUSH4 0xFFFFFFFF AND JUMP JUMPDEST POP POP POP JUMP JUMPDEST PUSH1 0x0 PUSH2 0x456 PUSH1 0x3 PUSH1 0x0 SWAP1 SLOAD SWAP1 PUSH2 0x100 EXP SWAP1 DIV PUSH20 0xFFFFFFFFFFFFFFFFFFFFFFFFFFFFFFFFFFFFFFFF AND DUP5 DUP5 PUSH2 0x533 JUMP JUMPDEST SWAP1 POP SWAP3 SWAP2 POP POP JUMP JUMPDEST PUSH2 0x466 PUSH2 0xC81 JUMP JUMPDEST PUSH2 0x476 DUP6 PUSH1 0x80 ADD MLOAD PUSH2 0x100 PUSH2 0x5FF JUMP JUMPDEST POP DUP4 DUP6 PUSH1 0x0 ADD DUP2 DUP2 MSTORE POP POP DUP3 DUP6 PUSH1 0x20 ADD SWAP1 PUSH20 0xFFFFFFFFFFFFFFFFFFFFFFFFFFFFFFFFFFFFFFFF AND SWAP1 DUP2 PUSH20 0xFFFFFFFFFFFFFFFFFFFFFFFFFFFFFFFFFFFFFFFF AND DUP2 MSTORE POP POP DUP2 DUP6 PUSH1 0x40 ADD SWAP1 PUSH28 0xFFFFFFFFFFFFFFFFFFFFFFFFFFFFFFFFFFFFFFFFFFFFFFFFFFFFFFFF NOT AND SWAP1 DUP2 PUSH28 0xFFFFFFFFFFFFFFFFFFFFFFFFFFFFFFFFFFFFFFFFFFFFFFFFFFFFFFFF NOT AND DUP2 MSTORE POP POP DUP5 SWAP1 POP SWAP5 SWAP4 POP POP POP POP JUMP JUMPDEST PUSH2 0x51B DUP3 PUSH1 0x3 DUP4 MLOAD PUSH2 0x669 JUMP JUMPDEST PUSH2 0x52E DUP2 DUP4 PUSH2 0x7EE SWAP1 SWAP2 SWAP1 PUSH4 0xFFFFFFFF AND JUMP JUMPDEST POP POP POP JUMP JUMPDEST PUSH1 0x0 DUP1 PUSH1 0x4 SLOAD SWAP1 POP PUSH1 0x1 DUP2 PUSH2 0x548 SWAP2 SWAP1 PUSH2 0x138C JUMP JUMPDEST PUSH1 0x4 DUP2 SWAP1 SSTORE POP PUSH1 0x0 PUSH4 0x40429946 PUSH1 0xE0 SHL PUSH1 0x0 DUP1 DUP8 PUSH1 0x0 ADD MLOAD ADDRESS DUP10 PUSH1 0x40 ADD MLOAD DUP8 PUSH1 0x1 DUP13 PUSH1 0x80 ADD MLOAD PUSH1 0x0 ADD MLOAD PUSH1 0x40 MLOAD PUSH1 0x24 ADD PUSH2 0x589 SWAP9 SWAP8 SWAP7 SWAP6 SWAP5 SWAP4 SWAP3 SWAP2 SWAP1 PUSH2 0x14B3 JUMP JUMPDEST PUSH1 0x40 MLOAD PUSH1 0x20 DUP2 DUP4 SUB SUB DUP2 MSTORE SWAP1 PUSH1 0x40 MSTORE SWAP1 PUSH28 0xFFFFFFFFFFFFFFFFFFFFFFFFFFFFFFFFFFFFFFFFFFFFFFFFFFFFFFFF NOT AND PUSH1 0x20 DUP3 ADD DUP1 MLOAD PUSH28 0xFFFFFFFFFFFFFFFFFFFFFFFFFFFFFFFFFFFFFFFFFFFFFFFFFFFFFFFF DUP4 DUP2 DUP4 AND OR DUP4 MSTORE POP POP POP POP SWAP1 POP PUSH2 0x5F4 DUP7 DUP4 DUP7 DUP5 PUSH2 0x810 JUMP JUMPDEST SWAP3 POP POP POP SWAP4 SWAP3 POP POP POP JUMP JUMPDEST PUSH2 0x607 PUSH2 0xCEE JUMP JUMPDEST PUSH1 0x0 PUSH1 0x20 DUP4 PUSH2 0x616 SWAP2 SWAP1 PUSH2 0x1567 JUMP JUMPDEST EQ PUSH2 0x642 JUMPI PUSH1 0x20 DUP3 PUSH2 0x628 SWAP2 SWAP1 PUSH2 0x1567 JUMP JUMPDEST PUSH1 0x20 PUSH2 0x634 SWAP2 SWAP1 PUSH2 0x1598 JUMP JUMPDEST DUP3 PUSH2 0x63F SWAP2 SWAP1 PUSH2 0x138C JUMP JUMPDEST SWAP2 POP JUMPDEST DUP2 DUP4 PUSH1 0x20 ADD DUP2 DUP2 MSTORE POP POP PUSH1 0x40 MLOAD DUP1 DUP5 MSTORE PUSH1 0x0 DUP2 MSTORE DUP3 DUP2 ADD PUSH1 0x20 ADD PUSH1 0x40 MSTORE POP DUP3 SWAP1 POP SWAP3 SWAP2 POP POP JUMP JUMPDEST PUSH1 0x17 DUP2 PUSH8 0xFFFFFFFFFFFFFFFF AND GT PUSH2 0x6A0 JUMPI PUSH2 0x69A DUP2 PUSH1 0x5 DUP5 PUSH1 0xFF AND SWAP1 SHL PUSH1 0xFF AND OR DUP5 PUSH2 0x9A5 SWAP1 SWAP2 SWAP1 PUSH4 0xFFFFFFFF AND JUMP JUMPDEST POP PUSH2 0x7E9 JUMP JUMPDEST PUSH1 0xFF DUP2 PUSH8 0xFFFFFFFFFFFFFFFF AND GT PUSH2 0x6F6 JUMPI PUSH2 0x6CF PUSH1 0x18 PUSH1 0x5 DUP5 PUSH1 0xFF AND SWAP1 SHL OR DUP5 PUSH2 0x9A5 SWAP1 SWAP2 SWAP1 PUSH4 0xFFFFFFFF AND JUMP JUMPDEST POP PUSH2 0x6F0 DUP2 PUSH8 0xFFFFFFFFFFFFFFFF AND PUSH1 0x1 DUP6 PUSH2 0x9C5 SWAP1 SWAP3 SWAP2 SWAP1 PUSH4 0xFFFFFFFF AND JUMP JUMPDEST POP PUSH2 0x7E8 JUMP JUMPDEST PUSH2 0xFFFF DUP2 PUSH8 0xFFFFFFFFFFFFFFFF AND GT PUSH2 0x74D JUMPI PUSH2 0x726 PUSH1 0x19 PUSH1 0x5 DUP5 PUSH1 0xFF AND SWAP1 SHL OR DUP5 PUSH2 0x9A5 SWAP1 SWAP2 SWAP1 PUSH4 0xFFFFFFFF AND JUMP JUMPDEST POP PUSH2 0x747 DUP2 PUSH8 0xFFFFFFFFFFFFFFFF AND PUSH1 0x2 DUP6 PUSH2 0x9C5 SWAP1 SWAP3 SWAP2 SWAP1 PUSH4 0xFFFFFFFF AND JUMP JUMPDEST POP PUSH2 0x7E7 JUMP JUMPDEST PUSH4 0xFFFFFFFF DUP2 PUSH8 0xFFFFFFFFFFFFFFFF AND GT PUSH2 0x7A6 JUMPI PUSH2 0x77F PUSH1 0x1A PUSH1 0x5 DUP5 PUSH1 0xFF AND SWAP1 SHL OR DUP5 PUSH2 0x9A5 SWAP1 SWAP2 SWAP1 PUSH4 0xFFFFFFFF AND JUMP JUMPDEST POP PUSH2 0x7A0 DUP2 PUSH8 0xFFFFFFFFFFFFFFFF AND PUSH1 0x4 DUP6 PUSH2 0x9C5 SWAP1 SWAP3 SWAP2 SWAP1 PUSH4 0xFFFFFFFF AND JUMP JUMPDEST POP PUSH2 0x7E6 JUMP JUMPDEST PUSH2 0x7C3 PUSH1 0x1B PUSH1 0x5 DUP5 PUSH1 0xFF AND SWAP1 SHL OR DUP5 PUSH2 0x9A5 SWAP1 SWAP2 SWAP1 PUSH4 0xFFFFFFFF AND JUMP JUMPDEST POP PUSH2 0x7E4 DUP2 PUSH8 0xFFFFFFFFFFFFFFFF AND PUSH1 0x8 DUP6 PUSH2 0x9C5 SWAP1 SWAP3 SWAP2 SWAP1 PUSH4 0xFFFFFFFF AND JUMP JUMPDEST POP JUMPDEST JUMPDEST JUMPDEST JUMPDEST POP POP POP JUMP JUMPDEST PUSH2 0x7F6 PUSH2 0xCEE JUMP JUMPDEST PUSH2 0x808 DUP4 DUP5 PUSH1 0x0 ADD MLOAD MLOAD DUP5 DUP6 MLOAD PUSH2 0x9E7 JUMP JUMPDEST SWAP1 POP SWAP3 SWAP2 POP POP JUMP JUMPDEST PUSH1 0x0 ADDRESS DUP5 PUSH1 0x40 MLOAD PUSH1 0x20 ADD PUSH2 0x825 SWAP3 SWAP2 SWAP1 PUSH2 0x1685 JUMP JUMPDEST PUSH1 0x40 MLOAD PUSH1 0x20 DUP2 DUP4 SUB SUB DUP2 MSTORE SWAP1 PUSH1 0x40 MSTORE DUP1 MLOAD SWAP1 PUSH1 0x20 ADD KECCAK256 SWAP1 POP DUP5 PUSH1 0x5 PUSH1 0x0 DUP4 DUP2 MSTORE PUSH1 0x20 ADD SWAP1 DUP2 MSTORE PUSH1 0x20 ADD PUSH1 0x0 KECCAK256 PUSH1 0x0 PUSH2 0x100 EXP DUP2 SLOAD DUP2 PUSH20 0xFFFFFFFFFFFFFFFFFFFFFFFFFFFFFFFFFFFFFFFF MUL NOT AND SWAP1 DUP4 PUSH20 0xFFFFFFFFFFFFFFFFFFFFFFFFFFFFFFFFFFFFFFFF AND MUL OR SWAP1 SSTORE POP DUP1 PUSH32 0xB5E6E01E79F91267DC17B4E6314D5D4D03593D2CEEE0FBB452B750BD70EA5AF9 PUSH1 0x40 MLOAD PUSH1 0x40 MLOAD DUP1 SWAP2 SUB SWAP1 LOG2 PUSH1 0x2 PUSH1 0x0 SWAP1 SLOAD SWAP1 PUSH2 0x100 EXP SWAP1 DIV PUSH20 0xFFFFFFFFFFFFFFFFFFFFFFFFFFFFFFFFFFFFFFFF AND PUSH20 0xFFFFFFFFFFFFFFFFFFFFFFFFFFFFFFFFFFFFFFFF AND PUSH4 0x4000AEA0 DUP7 DUP6 DUP6 PUSH1 0x40 MLOAD DUP5 PUSH4 0xFFFFFFFF AND PUSH1 0xE0 SHL DUP2 MSTORE PUSH1 0x4 ADD PUSH2 0x91B SWAP4 SWAP3 SWAP2 SWAP1 PUSH2 0x16B1 JUMP JUMPDEST PUSH1 0x20 PUSH1 0x40 MLOAD DUP1 DUP4 SUB DUP2 PUSH1 0x0 DUP8 GAS CALL ISZERO DUP1 ISZERO PUSH2 0x93A JUMPI RETURNDATASIZE PUSH1 0x0 DUP1 RETURNDATACOPY RETURNDATASIZE PUSH1 0x0 REVERT JUMPDEST POP POP POP POP PUSH1 0x40 MLOAD RETURNDATASIZE PUSH1 0x1F NOT PUSH1 0x1F DUP3 ADD AND DUP3 ADD DUP1 PUSH1 0x40 MSTORE POP DUP2 ADD SWAP1 PUSH2 0x95E SWAP2 SWAP1 PUSH2 0x1727 JUMP JUMPDEST PUSH2 0x99D JUMPI PUSH1 0x40 MLOAD PUSH32 0x8C379A000000000000000000000000000000000000000000000000000000000 DUP2 MSTORE PUSH1 0x4 ADD PUSH2 0x994 SWAP1 PUSH2 0x17C6 JUMP JUMPDEST PUSH1 0x40 MLOAD DUP1 SWAP2 SUB SWAP1 REVERT JUMPDEST SWAP5 SWAP4 POP POP POP POP JUMP JUMPDEST PUSH2 0x9AD PUSH2 0xCEE JUMP JUMPDEST PUSH2 0x9BD DUP4 DUP5 PUSH1 0x0 ADD MLOAD MLOAD DUP5 PUSH2 0xAD6 JUMP JUMPDEST SWAP1 POP SWAP3 SWAP2 POP POP JUMP JUMPDEST PUSH2 0x9CD PUSH2 0xCEE JUMP JUMPDEST PUSH2 0x9DE DUP5 DUP6 PUSH1 0x0 ADD MLOAD MLOAD DUP6 DUP6 PUSH2 0xB2D JUMP JUMPDEST SWAP1 POP SWAP4 SWAP3 POP POP POP JUMP JUMPDEST PUSH2 0x9EF PUSH2 0xCEE JUMP JUMPDEST DUP3 MLOAD DUP3 GT ISZERO PUSH2 0x9FD JUMPI PUSH1 0x0 DUP1 REVERT JUMPDEST DUP5 PUSH1 0x20 ADD MLOAD DUP3 DUP6 PUSH2 0xA0E SWAP2 SWAP1 PUSH2 0x138C JUMP JUMPDEST GT ISZERO PUSH2 0xA43 JUMPI PUSH2 0xA42 DUP6 PUSH1 0x2 PUSH2 0xA33 DUP9 PUSH1 0x20 ADD MLOAD DUP9 DUP8 PUSH2 0xA2E SWAP2 SWAP1 PUSH2 0x138C JUMP JUMPDEST PUSH2 0xBBB JUMP JUMPDEST PUSH2 0xA3D SWAP2 SWAP1 PUSH2 0x17E6 JUMP JUMPDEST PUSH2 0xBD7 JUMP JUMPDEST JUMPDEST PUSH1 0x0 DUP1 DUP7 MLOAD DUP1 MLOAD DUP8 PUSH1 0x20 DUP4 ADD ADD SWAP4 POP DUP1 DUP9 DUP8 ADD GT ISZERO PUSH2 0xA62 JUMPI DUP8 DUP7 ADD DUP3 MSTORE JUMPDEST PUSH1 0x20 DUP8 ADD SWAP3 POP POP POP JUMPDEST PUSH1 0x20 DUP5 LT PUSH2 0xAA9 JUMPI DUP1 MLOAD DUP3 MSTORE PUSH1 0x20 DUP3 PUSH2 0xA84 SWAP2 SWAP1 PUSH2 0x138C JUMP JUMPDEST SWAP2 POP PUSH1 0x20 DUP2 PUSH2 0xA93 SWAP2 SWAP1 PUSH2 0x138C JUMP JUMPDEST SWAP1 POP PUSH1 0x20 DUP5 PUSH2 0xAA2 SWAP2 SWAP1 PUSH2 0x1598 JUMP JUMPDEST SWAP4 POP PUSH2 0xA6B JUMP JUMPDEST PUSH1 0x0 PUSH1 0x1 DUP6 PUSH1 0x20 SUB PUSH2 0x100 EXP SUB SWAP1 POP DUP1 NOT DUP3 MLOAD AND DUP2 DUP5 MLOAD AND DUP2 DUP2 OR DUP6 MSTORE POP POP POP DUP7 SWAP3 POP POP POP SWAP5 SWAP4 POP POP POP POP JUMP JUMPDEST PUSH2 0xADE PUSH2 0xCEE JUMP JUMPDEST DUP4 PUSH1 0x20 ADD MLOAD DUP4 LT PUSH2 0xB04 JUMPI PUSH2 0xB03 DUP5 PUSH1 0x2 DUP7 PUSH1 0x20 ADD MLOAD PUSH2 0xAFE SWAP2 SWAP1 PUSH2 0x17E6 JUMP JUMPDEST PUSH2 0xBD7 JUMP JUMPDEST JUMPDEST DUP4 MLOAD DUP1 MLOAD PUSH1 0x20 DUP6 DUP4 ADD ADD DUP5 DUP2 MSTORE8 DUP2 DUP7 EQ ISZERO PUSH2 0xB20 JUMPI PUSH1 0x1 DUP3 ADD DUP4 MSTORE JUMPDEST POP POP POP DUP4 SWAP1 POP SWAP4 SWAP3 POP POP POP JUMP JUMPDEST PUSH2 0xB35 PUSH2 0xCEE JUMP JUMPDEST DUP5 PUSH1 0x20 ADD MLOAD DUP5 DUP4 PUSH2 0xB46 SWAP2 SWAP1 PUSH2 0x138C JUMP JUMPDEST GT ISZERO PUSH2 0xB6E JUMPI PUSH2 0xB6D DUP6 PUSH1 0x2 DUP7 DUP6 PUSH2 0xB5E SWAP2 SWAP1 PUSH2 0x138C JUMP JUMPDEST PUSH2 0xB68 SWAP2 SWAP1 PUSH2 0x17E6 JUMP JUMPDEST PUSH2 0xBD7 JUMP JUMPDEST JUMPDEST PUSH1 0x0 PUSH1 0x1 DUP4 PUSH2 0x100 PUSH2 0xB80 SWAP2 SWAP1 PUSH2 0x1973 JUMP JUMPDEST PUSH2 0xB8A SWAP2 SWAP1 PUSH2 0x1598 JUMP JUMPDEST SWAP1 POP DUP6 MLOAD DUP4 DUP7 DUP3 ADD ADD DUP6 DUP4 NOT DUP3 MLOAD AND OR DUP2 MSTORE DUP2 MLOAD DUP6 DUP9 ADD GT ISZERO PUSH2 0xBAD JUMPI DUP5 DUP8 ADD DUP3 MSTORE JUMPDEST POP POP DUP6 SWAP2 POP POP SWAP5 SWAP4 POP POP POP POP JUMP JUMPDEST PUSH1 0x0 DUP2 DUP4 GT ISZERO PUSH2 0xBCD JUMPI DUP3 SWAP1 POP PUSH2 0xBD1 JUMP JUMPDEST DUP2 SWAP1 POP JUMPDEST SWAP3 SWAP2 POP POP JUMP JUMPDEST PUSH1 0x0 DUP3 PUSH1 0x0 ADD MLOAD SWAP1 POP PUSH2 0xBEA DUP4 DUP4 PUSH2 0x5FF JUMP JUMPDEST POP PUSH2 0xBF5 DUP4 DUP3 PUSH2 0x7EE JUMP JUMPDEST POP POP POP POP JUMP JUMPDEST DUP3 DUP1 SLOAD PUSH2 0xC07 SWAP1 PUSH2 0x1206 JUMP JUMPDEST SWAP1 PUSH1 0x0 MSTORE PUSH1 0x20 PUSH1 0x0 KECCAK256 SWAP1 PUSH1 0x1F ADD PUSH1 0x20 SWAP1 DIV DUP2 ADD SWAP3 DUP3 PUSH2 0xC29 JUMPI PUSH1 0x0 DUP6 SSTORE PUSH2 0xC70 JUMP JUMPDEST DUP3 PUSH1 0x1F LT PUSH2 0xC42 JUMPI DUP1 MLOAD PUSH1 0xFF NOT AND DUP4 DUP1 ADD OR DUP6 SSTORE PUSH2 0xC70 JUMP JUMPDEST DUP3 DUP1 ADD PUSH1 0x1 ADD DUP6 SSTORE DUP3 ISZERO PUSH2 0xC70 JUMPI SWAP2 DUP3 ADD JUMPDEST DUP3 DUP2 GT ISZERO PUSH2 0xC6F JUMPI DUP3 MLOAD DUP3 SSTORE SWAP2 PUSH1 0x20 ADD SWAP2 SWAP1 PUSH1 0x1 ADD SWAP1 PUSH2 0xC54 JUMP JUMPDEST JUMPDEST POP SWAP1 POP PUSH2 0xC7D SWAP2 SWAP1 PUSH2 0xD08 JUMP JUMPDEST POP SWAP1 JUMP JUMPDEST PUSH1 0x40 MLOAD DUP1 PUSH1 0xA0 ADD PUSH1 0x40 MSTORE DUP1 PUSH1 0x0 DUP1 NOT AND DUP2 MSTORE PUSH1 0x20 ADD PUSH1 0x0 PUSH20 0xFFFFFFFFFFFFFFFFFFFFFFFFFFFFFFFFFFFFFFFF AND DUP2 MSTORE PUSH1 0x20 ADD PUSH1 0x0 PUSH28 0xFFFFFFFFFFFFFFFFFFFFFFFFFFFFFFFFFFFFFFFFFFFFFFFFFFFFFFFF NOT AND DUP2 MSTORE PUSH1 0x20 ADD PUSH1 0x0 DUP2 MSTORE PUSH1 0x20 ADD PUSH2 0xCE8 PUSH2 0xCEE JUMP JUMPDEST DUP2 MSTORE POP SWAP1 JUMP JUMPDEST PUSH1 0x40 MLOAD DUP1 PUSH1 0x40 ADD PUSH1 0x40 MSTORE DUP1 PUSH1 0x60 DUP2 MSTORE PUSH1 0x20 ADD PUSH1 0x0 DUP2 MSTORE POP SWAP1 JUMP JUMPDEST JUMPDEST DUP1 DUP3 GT ISZERO PUSH2 0xD21 JUMPI PUSH1 0x0 DUP2 PUSH1 0x0 SWAP1 SSTORE POP PUSH1 0x1 ADD PUSH2 0xD09 JUMP JUMPDEST POP SWAP1 JUMP JUMPDEST PUSH1 0x0 PUSH1 0x40 MLOAD SWAP1 POP SWAP1 JUMP JUMPDEST PUSH1 0x0 DUP1 REVERT JUMPDEST PUSH1 0x0 DUP1 REVERT JUMPDEST PUSH1 0x0 DUP1 REVERT JUMPDEST PUSH1 0x0 DUP1 REVERT JUMPDEST PUSH1 0x0 PUSH1 0x1F NOT PUSH1 0x1F DUP4 ADD AND SWAP1 POP SWAP2 SWAP1 POP JUMP JUMPDEST PUSH32 0x4E487B7100000000000000000000000000000000000000000000000000000000 PUSH1 0x0 MSTORE PUSH1 0x41 PUSH1 0x4 MSTORE PUSH1 0x24 PUSH1 0x0 REVERT JUMPDEST PUSH2 0xD8C DUP3 PUSH2 0xD43 JUMP JUMPDEST DUP2 ADD DUP2 DUP2 LT PUSH8 0xFFFFFFFFFFFFFFFF DUP3 GT OR ISZERO PUSH2 0xDAB JUMPI PUSH2 0xDAA PUSH2 0xD54 JUMP JUMPDEST JUMPDEST DUP1 PUSH1 0x40 MSTORE POP POP POP JUMP JUMPDEST PUSH1 0x0 PUSH2 0xDBE PUSH2 0xD25 JUMP JUMPDEST SWAP1 POP PUSH2 0xDCA DUP3 DUP3 PUSH2 0xD83 JUMP JUMPDEST SWAP2 SWAP1 POP JUMP JUMPDEST PUSH1 0x0 PUSH8 0xFFFFFFFFFFFFFFFF DUP3 GT ISZERO PUSH2 0xDEA JUMPI PUSH2 0xDE9 PUSH2 0xD54 JUMP JUMPDEST JUMPDEST PUSH2 0xDF3 DUP3 PUSH2 0xD43 JUMP JUMPDEST SWAP1 POP PUSH1 0x20 DUP2 ADD SWAP1 POP SWAP2 SWAP1 POP JUMP JUMPDEST DUP3 DUP2 DUP4 CALLDATACOPY PUSH1 0x0 DUP4 DUP4 ADD MSTORE POP POP POP JUMP JUMPDEST PUSH1 0x0 PUSH2 0xE22 PUSH2 0xE1D DUP5 PUSH2 0xDCF JUMP JUMPDEST PUSH2 0xDB4 JUMP JUMPDEST SWAP1 POP DUP3 DUP2 MSTORE PUSH1 0x20 DUP2 ADD DUP5 DUP5 DUP5 ADD GT ISZERO PUSH2 0xE3E JUMPI PUSH2 0xE3D PUSH2 0xD3E JUMP JUMPDEST JUMPDEST PUSH2 0xE49 DUP5 DUP3 DUP6 PUSH2 0xE00 JUMP JUMPDEST POP SWAP4 SWAP3 POP POP POP JUMP JUMPDEST PUSH1 0x0 DUP3 PUSH1 0x1F DUP4 ADD SLT PUSH2 0xE66 JUMPI PUSH2 0xE65 PUSH2 0xD39 JUMP JUMPDEST JUMPDEST DUP2 CALLDATALOAD PUSH2 0xE76 DUP5 DUP3 PUSH1 0x20 DUP7 ADD PUSH2 0xE0F JUMP JUMPDEST SWAP2 POP POP SWAP3 SWAP2 POP POP JUMP JUMPDEST PUSH1 0x0 PUSH1 0x20 DUP3 DUP5 SUB SLT ISZERO PUSH2 0xE95 JUMPI PUSH2 0xE94 PUSH2 0xD2F JUMP JUMPDEST JUMPDEST PUSH1 0x0 DUP3 ADD CALLDATALOAD PUSH8 0xFFFFFFFFFFFFFFFF DUP2 GT ISZERO PUSH2 0xEB3 JUMPI PUSH2 0xEB2 PUSH2 0xD34 JUMP JUMPDEST JUMPDEST PUSH2 0xEBF DUP5 DUP3 DUP6 ADD PUSH2 0xE51 JUMP JUMPDEST SWAP2 POP POP SWAP3 SWAP2 POP POP JUMP JUMPDEST PUSH1 0x0 DUP2 SWAP1 POP SWAP2 SWAP1 POP JUMP JUMPDEST PUSH2 0xEDB DUP2 PUSH2 0xEC8 JUMP JUMPDEST DUP3 MSTORE POP POP JUMP JUMPDEST PUSH1 0x0 PUSH1 0x20 DUP3 ADD SWAP1 POP PUSH2 0xEF6 PUSH1 0x0 DUP4 ADD DUP5 PUSH2 0xED2 JUMP JUMPDEST SWAP3 SWAP2 POP POP JUMP JUMPDEST PUSH1 0x0 DUP2 MLOAD SWAP1 POP SWAP2 SWAP1 POP JUMP JUMPDEST PUSH1 0x0 DUP3 DUP3 MSTORE PUSH1 0x20 DUP3 ADD SWAP1 POP SWAP3 SWAP2 POP POP JUMP JUMPDEST PUSH1 0x0 JUMPDEST DUP4 DUP2 LT ISZERO PUSH2 0xF36 JUMPI DUP1 DUP3 ADD MLOAD DUP2 DUP5 ADD MSTORE PUSH1 0x20 DUP2 ADD SWAP1 POP PUSH2 0xF1B JUMP JUMPDEST DUP4 DUP2 GT ISZERO PUSH2 0xF45 JUMPI PUSH1 0x0 DUP5 DUP5 ADD MSTORE JUMPDEST POP POP POP POP JUMP JUMPDEST PUSH1 0x0 PUSH2 0xF56 DUP3 PUSH2 0xEFC JUMP JUMPDEST PUSH2 0xF60 DUP2 DUP6 PUSH2 0xF07 JUMP JUMPDEST SWAP4 POP PUSH2 0xF70 DUP2 DUP6 PUSH1 0x20 DUP7 ADD PUSH2 0xF18 JUMP JUMPDEST PUSH2 0xF79 DUP2 PUSH2 0xD43 JUMP JUMPDEST DUP5 ADD SWAP2 POP POP SWAP3 SWAP2 POP POP JUMP JUMPDEST PUSH1 0x0 PUSH1 0x20 DUP3 ADD SWAP1 POP DUP2 DUP2 SUB PUSH1 0x0 DUP4 ADD MSTORE PUSH2 0xF9E DUP2 DUP5 PUSH2 0xF4B JUMP JUMPDEST SWAP1 POP SWAP3 SWAP2 POP POP JUMP JUMPDEST PUSH2 0xFAF DUP2 PUSH2 0xEC8 JUMP JUMPDEST DUP2 EQ PUSH2 0xFBA JUMPI PUSH1 0x0 DUP1 REVERT JUMPDEST POP JUMP JUMPDEST PUSH1 0x0 DUP2 CALLDATALOAD SWAP1 POP PUSH2 0xFCC DUP2 PUSH2 0xFA6 JUMP JUMPDEST SWAP3 SWAP2 POP POP JUMP JUMPDEST PUSH1 0x0 PUSH8 0xFFFFFFFFFFFFFFFF DUP3 GT ISZERO PUSH2 0xFED JUMPI PUSH2 0xFEC PUSH2 0xD54 JUMP JUMPDEST JUMPDEST PUSH2 0xFF6 DUP3 PUSH2 0xD43 JUMP JUMPDEST SWAP1 POP PUSH1 0x20 DUP2 ADD SWAP1 POP SWAP2 SWAP1 POP JUMP JUMPDEST PUSH1 0x0 PUSH2 0x1016 PUSH2 0x1011 DUP5 PUSH2 0xFD2 JUMP JUMPDEST PUSH2 0xDB4 JUMP JUMPDEST SWAP1 POP DUP3 DUP2 MSTORE PUSH1 0x20 DUP2 ADD DUP5 DUP5 DUP5 ADD GT ISZERO PUSH2 0x1032 JUMPI PUSH2 0x1031 PUSH2 0xD3E JUMP JUMPDEST JUMPDEST PUSH2 0x103D DUP5 DUP3 DUP6 PUSH2 0xE00 JUMP JUMPDEST POP SWAP4 SWAP3 POP POP POP JUMP JUMPDEST PUSH1 0x0 DUP3 PUSH1 0x1F DUP4 ADD SLT PUSH2 0x105A JUMPI PUSH2 0x1059 PUSH2 0xD39 JUMP JUMPDEST JUMPDEST DUP2 CALLDATALOAD PUSH2 0x106A DUP5 DUP3 PUSH1 0x20 DUP7 ADD PUSH2 0x1003 JUMP JUMPDEST SWAP2 POP POP SWAP3 SWAP2 POP POP JUMP JUMPDEST PUSH1 0x0 DUP2 SWAP1 POP SWAP2 SWAP1 POP JUMP JUMPDEST PUSH2 0x1086 DUP2 PUSH2 0x1073 JUMP JUMPDEST DUP2 EQ PUSH2 0x1091 JUMPI PUSH1 0x0 DUP1 REVERT JUMPDEST POP JUMP JUMPDEST PUSH1 0x0 DUP2 CALLDATALOAD SWAP1 POP PUSH2 0x10A3 DUP2 PUSH2 0x107D JUMP JUMPDEST SWAP3 SWAP2 POP POP JUMP JUMPDEST PUSH1 0x0 DUP1 PUSH1 0x0 DUP1 PUSH1 0x0 DUP1 PUSH1 0x0 PUSH1 0xE0 DUP9 DUP11 SUB SLT ISZERO PUSH2 0x10C8 JUMPI PUSH2 0x10C7 PUSH2 0xD2F JUMP JUMPDEST JUMPDEST PUSH1 0x0 PUSH2 0x10D6 DUP11 DUP3 DUP12 ADD PUSH2 0xFBD JUMP JUMPDEST SWAP8 POP POP PUSH1 0x20 DUP9 ADD CALLDATALOAD PUSH8 0xFFFFFFFFFFFFFFFF DUP2 GT ISZERO PUSH2 0x10F7 JUMPI PUSH2 0x10F6 PUSH2 0xD34 JUMP JUMPDEST JUMPDEST PUSH2 0x1103 DUP11 DUP3 DUP12 ADD PUSH2 0x1045 JUMP JUMPDEST SWAP7 POP POP PUSH1 0x40 DUP9 ADD CALLDATALOAD PUSH8 0xFFFFFFFFFFFFFFFF DUP2 GT ISZERO PUSH2 0x1124 JUMPI PUSH2 0x1123 PUSH2 0xD34 JUMP JUMPDEST JUMPDEST PUSH2 0x1130 DUP11 DUP3 DUP12 ADD PUSH2 0x1045 JUMP JUMPDEST SWAP6 POP POP PUSH1 0x60 DUP9 ADD CALLDATALOAD PUSH8 0xFFFFFFFFFFFFFFFF DUP2 GT ISZERO PUSH2 0x1151 JUMPI PUSH2 0x1150 PUSH2 0xD34 JUMP JUMPDEST JUMPDEST PUSH2 0x115D DUP11 DUP3 DUP12 ADD PUSH2 0x1045 JUMP JUMPDEST SWAP5 POP POP PUSH1 0x80 DUP9 ADD CALLDATALOAD PUSH8 0xFFFFFFFFFFFFFFFF DUP2 GT ISZERO PUSH2 0x117E JUMPI PUSH2 0x117D PUSH2 0xD34 JUMP JUMPDEST JUMPDEST PUSH2 0x118A DUP11 DUP3 DUP12 ADD PUSH2 0x1045 JUMP JUMPDEST SWAP4 POP POP PUSH1 0xA0 PUSH2 0x119B DUP11 DUP3 DUP12 ADD PUSH2 0x1094 JUMP JUMPDEST SWAP3 POP POP PUSH1 0xC0 DUP9 ADD CALLDATALOAD PUSH8 0xFFFFFFFFFFFFFFFF DUP2 GT ISZERO PUSH2 0x11BC JUMPI PUSH2 0x11BB PUSH2 0xD34 JUMP JUMPDEST JUMPDEST PUSH2 0x11C8 DUP11 DUP3 DUP12 ADD PUSH2 0x1045 JUMP JUMPDEST SWAP2 POP POP SWAP3 SWAP6 SWAP9 SWAP2 SWAP5 SWAP8 POP SWAP3 SWAP6 POP JUMP JUMPDEST PUSH32 0x4E487B7100000000000000000000000000000000000000000000000000000000 PUSH1 0x0 MSTORE PUSH1 0x22 PUSH1 0x4 MSTORE PUSH1 0x24 PUSH1 0x0 REVERT JUMPDEST PUSH1 0x0 PUSH1 0x2 DUP3 DIV SWAP1 POP PUSH1 0x1 DUP3 AND DUP1 PUSH2 0x121E JUMPI PUSH1 0x7F DUP3 AND SWAP2 POP JUMPDEST PUSH1 0x20 DUP3 LT DUP2 EQ ISZERO PUSH2 0x1232 JUMPI PUSH2 0x1231 PUSH2 0x11D7 JUMP JUMPDEST JUMPDEST POP SWAP2 SWAP1 POP JUMP JUMPDEST PUSH32 0x536F75726365206D75737420626520746865206F7261636C65206F6620746865 PUSH1 0x0 DUP3 ADD MSTORE PUSH32 0x2072657175657374000000000000000000000000000000000000000000000000 PUSH1 0x20 DUP3 ADD MSTORE POP JUMP JUMPDEST PUSH1 0x0 PUSH2 0x1294 PUSH1 0x28 DUP4 PUSH2 0xF07 JUMP JUMPDEST SWAP2 POP PUSH2 0x129F DUP3 PUSH2 0x1238 JUMP JUMPDEST PUSH1 0x40 DUP3 ADD SWAP1 POP SWAP2 SWAP1 POP JUMP JUMPDEST PUSH1 0x0 PUSH1 0x20 DUP3 ADD SWAP1 POP DUP2 DUP2 SUB PUSH1 0x0 DUP4 ADD MSTORE PUSH2 0x12C3 DUP2 PUSH2 0x1287 JUMP JUMPDEST SWAP1 POP SWAP2 SWAP1 POP JUMP JUMPDEST PUSH2 0x12D3 DUP2 PUSH2 0x1073 JUMP JUMPDEST DUP3 MSTORE POP POP JUMP JUMPDEST PUSH1 0x0 PUSH1 0xC0 DUP3 ADD SWAP1 POP DUP2 DUP2 SUB PUSH1 0x0 DUP4 ADD MSTORE PUSH2 0x12F3 DUP2 DUP10 PUSH2 0xF4B JUMP JUMPDEST SWAP1 POP DUP2 DUP2 SUB PUSH1 0x20 DUP4 ADD MSTORE PUSH2 0x1307 DUP2 DUP9 PUSH2 0xF4B JUMP JUMPDEST SWAP1 POP DUP2 DUP2 SUB PUSH1 0x40 DUP4 ADD MSTORE PUSH2 0x131B DUP2 DUP8 PUSH2 0xF4B JUMP JUMPDEST SWAP1 POP DUP2 DUP2 SUB PUSH1 0x60 DUP4 ADD MSTORE PUSH2 0x132F DUP2 DUP7 PUSH2 0xF4B JUMP JUMPDEST SWAP1 POP PUSH2 0x133E PUSH1 0x80 DUP4 ADD DUP6 PUSH2 0x12CA JUMP JUMPDEST DUP2 DUP2 SUB PUSH1 0xA0 DUP4 ADD MSTORE PUSH2 0x1350 DUP2 DUP5 PUSH2 0xF4B JUMP JUMPDEST SWAP1 POP SWAP8 SWAP7 POP POP POP POP POP POP POP JUMP JUMPDEST PUSH32 0x4E487B7100000000000000000000000000000000000000000000000000000000 PUSH1 0x0 MSTORE PUSH1 0x11 PUSH1 0x4 MSTORE PUSH1 0x24 PUSH1 0x0 REVERT JUMPDEST PUSH1 0x0 PUSH2 0x1397 DUP3 PUSH2 0x1073 JUMP JUMPDEST SWAP2 POP PUSH2 0x13A2 DUP4 PUSH2 0x1073 JUMP JUMPDEST SWAP3 POP DUP3 PUSH32 0xFFFFFFFFFFFFFFFFFFFFFFFFFFFFFFFFFFFFFFFFFFFFFFFFFFFFFFFFFFFFFFFF SUB DUP3 GT ISZERO PUSH2 0x13D7 JUMPI PUSH2 0x13D6 PUSH2 0x135D JUMP JUMPDEST JUMPDEST DUP3 DUP3 ADD SWAP1 POP SWAP3 SWAP2 POP POP JUMP JUMPDEST PUSH1 0x0 PUSH20 0xFFFFFFFFFFFFFFFFFFFFFFFFFFFFFFFFFFFFFFFF DUP3 AND SWAP1 POP SWAP2 SWAP1 POP JUMP JUMPDEST PUSH1 0x0 PUSH2 0x140D DUP3 PUSH2 0x13E2 JUMP JUMPDEST SWAP1 POP SWAP2 SWAP1 POP JUMP JUMPDEST PUSH2 0x141D DUP2 PUSH2 0x1402 JUMP JUMPDEST DUP3 MSTORE POP POP JUMP JUMPDEST PUSH1 0x0 PUSH32 0xFFFFFFFF00000000000000000000000000000000000000000000000000000000 DUP3 AND SWAP1 POP SWAP2 SWAP1 POP JUMP JUMPDEST PUSH2 0x1458 DUP2 PUSH2 0x1423 JUMP JUMPDEST DUP3 MSTORE POP POP JUMP JUMPDEST PUSH1 0x0 DUP2 MLOAD SWAP1 POP SWAP2 SWAP1 POP JUMP JUMPDEST PUSH1 0x0 DUP3 DUP3 MSTORE PUSH1 0x20 DUP3 ADD SWAP1 POP SWAP3 SWAP2 POP POP JUMP JUMPDEST PUSH1 0x0 PUSH2 0x1485 DUP3 PUSH2 0x145E JUMP JUMPDEST PUSH2 0x148F DUP2 DUP6 PUSH2 0x1469 JUMP JUMPDEST SWAP4 POP PUSH2 0x149F DUP2 DUP6 PUSH1 0x20 DUP7 ADD PUSH2 0xF18 JUMP JUMPDEST PUSH2 0x14A8 DUP2 PUSH2 0xD43 JUMP JUMPDEST DUP5 ADD SWAP2 POP POP SWAP3 SWAP2 POP POP JUMP JUMPDEST PUSH1 0x0 PUSH2 0x100 DUP3 ADD SWAP1 POP PUSH2 0x14C9 PUSH1 0x0 DUP4 ADD DUP12 PUSH2 0x1414 JUMP JUMPDEST PUSH2 0x14D6 PUSH1 0x20 DUP4 ADD DUP11 PUSH2 0x12CA JUMP JUMPDEST PUSH2 0x14E3 PUSH1 0x40 DUP4 ADD DUP10 PUSH2 0xED2 JUMP JUMPDEST PUSH2 0x14F0 PUSH1 0x60 DUP4 ADD DUP9 PUSH2 0x1414 JUMP JUMPDEST PUSH2 0x14FD PUSH1 0x80 DUP4 ADD DUP8 PUSH2 0x144F JUMP JUMPDEST PUSH2 0x150A PUSH1 0xA0 DUP4 ADD DUP7 PUSH2 0x12CA JUMP JUMPDEST PUSH2 0x1517 PUSH1 0xC0 DUP4 ADD DUP6 PUSH2 0x12CA JUMP JUMPDEST DUP2 DUP2 SUB PUSH1 0xE0 DUP4 ADD MSTORE PUSH2 0x1529 DUP2 DUP5 PUSH2 0x147A JUMP JUMPDEST SWAP1 POP SWAP10 SWAP9 POP POP POP POP POP POP POP POP POP JUMP JUMPDEST PUSH32 0x4E487B7100000000000000000000000000000000000000000000000000000000 PUSH1 0x0 MSTORE PUSH1 0x12 PUSH1 0x4 MSTORE PUSH1 0x24 PUSH1 0x0 REVERT JUMPDEST PUSH1 0x0 PUSH2 0x1572 DUP3 PUSH2 0x1073 JUMP JUMPDEST SWAP2 POP PUSH2 0x157D DUP4 PUSH2 0x1073 JUMP JUMPDEST SWAP3 POP DUP3 PUSH2 0x158D JUMPI PUSH2 0x158C PUSH2 0x1538 JUMP JUMPDEST JUMPDEST DUP3 DUP3 MOD SWAP1 POP SWAP3 SWAP2 POP POP JUMP JUMPDEST PUSH1 0x0 PUSH2 0x15A3 DUP3 PUSH2 0x1073 JUMP JUMPDEST SWAP2 POP PUSH2 0x15AE DUP4 PUSH2 0x1073 JUMP JUMPDEST SWAP3 POP DUP3 DUP3 LT ISZERO PUSH2 0x15C1 JUMPI PUSH2 0x15C0 PUSH2 0x135D JUMP JUMPDEST JUMPDEST DUP3 DUP3 SUB SWAP1 POP SWAP3 SWAP2 POP POP JUMP JUMPDEST PUSH1 0x0 DUP2 SWAP1 POP SWAP2 SWAP1 POP JUMP JUMPDEST PUSH1 0x0 PUSH2 0x15F1 PUSH2 0x15EC PUSH2 0x15E7 DUP5 PUSH2 0x13E2 JUMP JUMPDEST PUSH2 0x15CC JUMP JUMPDEST PUSH2 0x13E2 JUMP JUMPDEST SWAP1 POP SWAP2 SWAP1 POP JUMP JUMPDEST PUSH1 0x0 PUSH2 0x1603 DUP3 PUSH2 0x15D6 JUMP JUMPDEST SWAP1 POP SWAP2 SWAP1 POP JUMP JUMPDEST PUSH1 0x0 PUSH2 0x1615 DUP3 PUSH2 0x15F8 JUMP JUMPDEST SWAP1 POP SWAP2 SWAP1 POP JUMP JUMPDEST PUSH1 0x0 DUP2 PUSH1 0x60 SHL SWAP1 POP SWAP2 SWAP1 POP JUMP JUMPDEST PUSH1 0x0 PUSH2 0x1634 DUP3 PUSH2 0x161C JUMP JUMPDEST SWAP1 POP SWAP2 SWAP1 POP JUMP JUMPDEST PUSH1 0x0 PUSH2 0x1646 DUP3 PUSH2 0x1629 JUMP JUMPDEST SWAP1 POP SWAP2 SWAP1 POP JUMP JUMPDEST PUSH2 0x165E PUSH2 0x1659 DUP3 PUSH2 0x160A JUMP JUMPDEST PUSH2 0x163B JUMP JUMPDEST DUP3 MSTORE POP POP JUMP JUMPDEST PUSH1 0x0 DUP2 SWAP1 POP SWAP2 SWAP1 POP JUMP JUMPDEST PUSH2 0x167F PUSH2 0x167A DUP3 PUSH2 0x1073 JUMP JUMPDEST PUSH2 0x1664 JUMP JUMPDEST DUP3 MSTORE POP POP JUMP JUMPDEST PUSH1 0x0 PUSH2 0x1691 DUP3 DUP6 PUSH2 0x164D JUMP JUMPDEST PUSH1 0x14 DUP3 ADD SWAP2 POP PUSH2 0x16A1 DUP3 DUP5 PUSH2 0x166E JUMP JUMPDEST PUSH1 0x20 DUP3 ADD SWAP2 POP DUP2 SWAP1 POP SWAP4 SWAP3 POP POP POP JUMP JUMPDEST PUSH1 0x0 PUSH1 0x60 DUP3 ADD SWAP1 POP PUSH2 0x16C6 PUSH1 0x0 DUP4 ADD DUP7 PUSH2 0x1414 JUMP JUMPDEST PUSH2 0x16D3 PUSH1 0x20 DUP4 ADD DUP6 PUSH2 0x12CA JUMP JUMPDEST DUP2 DUP2 SUB PUSH1 0x40 DUP4 ADD MSTORE PUSH2 0x16E5 DUP2 DUP5 PUSH2 0x147A JUMP JUMPDEST SWAP1 POP SWAP5 SWAP4 POP POP POP POP JUMP JUMPDEST PUSH1 0x0 DUP2 ISZERO ISZERO SWAP1 POP SWAP2 SWAP1 POP JUMP JUMPDEST PUSH2 0x1704 DUP2 PUSH2 0x16EF JUMP JUMPDEST DUP2 EQ PUSH2 0x170F JUMPI PUSH1 0x0 DUP1 REVERT JUMPDEST POP JUMP JUMPDEST PUSH1 0x0 DUP2 MLOAD SWAP1 POP PUSH2 0x1721 DUP2 PUSH2 0x16FB JUMP JUMPDEST SWAP3 SWAP2 POP POP JUMP JUMPDEST PUSH1 0x0 PUSH1 0x20 DUP3 DUP5 SUB SLT ISZERO PUSH2 0x173D JUMPI PUSH2 0x173C PUSH2 0xD2F JUMP JUMPDEST JUMPDEST PUSH1 0x0 PUSH2 0x174B DUP5 DUP3 DUP6 ADD PUSH2 0x1712 JUMP JUMPDEST SWAP2 POP POP SWAP3 SWAP2 POP POP JUMP JUMPDEST PUSH32 0x756E61626C6520746F207472616E73666572416E6443616C6C20746F206F7261 PUSH1 0x0 DUP3 ADD MSTORE PUSH32 0x636C650000000000000000000000000000000000000000000000000000000000 PUSH1 0x20 DUP3 ADD MSTORE POP JUMP JUMPDEST PUSH1 0x0 PUSH2 0x17B0 PUSH1 0x23 DUP4 PUSH2 0xF07 JUMP JUMPDEST SWAP2 POP PUSH2 0x17BB DUP3 PUSH2 0x1754 JUMP JUMPDEST PUSH1 0x40 DUP3 ADD SWAP1 POP SWAP2 SWAP1 POP JUMP JUMPDEST PUSH1 0x0 PUSH1 0x20 DUP3 ADD SWAP1 POP DUP2 DUP2 SUB PUSH1 0x0 DUP4 ADD MSTORE PUSH2 0x17DF DUP2 PUSH2 0x17A3 JUMP JUMPDEST SWAP1 POP SWAP2 SWAP1 POP JUMP JUMPDEST PUSH1 0x0 PUSH2 0x17F1 DUP3 PUSH2 0x1073 JUMP JUMPDEST SWAP2 POP PUSH2 0x17FC DUP4 PUSH2 0x1073 JUMP JUMPDEST SWAP3 POP DUP2 PUSH32 0xFFFFFFFFFFFFFFFFFFFFFFFFFFFFFFFFFFFFFFFFFFFFFFFFFFFFFFFFFFFFFFFF DIV DUP4 GT DUP3 ISZERO ISZERO AND ISZERO PUSH2 0x1835 JUMPI PUSH2 0x1834 PUSH2 0x135D JUMP JUMPDEST JUMPDEST DUP3 DUP3 MUL SWAP1 POP SWAP3 SWAP2 POP POP JUMP JUMPDEST PUSH1 0x0 DUP2 PUSH1 0x1 SHR SWAP1 POP SWAP2 SWAP1 POP JUMP JUMPDEST PUSH1 0x0 DUP1 DUP3 SWAP2 POP DUP4 SWAP1 POP JUMPDEST PUSH1 0x1 DUP6 GT ISZERO PUSH2 0x1897 JUMPI DUP1 DUP7 DIV DUP2 GT ISZERO PUSH2 0x1873 JUMPI PUSH2 0x1872 PUSH2 0x135D JUMP JUMPDEST JUMPDEST PUSH1 0x1 DUP6 AND ISZERO PUSH2 0x1882 JUMPI DUP1 DUP3 MUL SWAP2 POP JUMPDEST DUP1 DUP2 MUL SWAP1 POP PUSH2 0x1890 DUP6 PUSH2 0x1840 JUMP JUMPDEST SWAP5 POP PUSH2 0x1857 JUMP JUMPDEST SWAP5 POP SWAP5 SWAP3 POP POP POP JUMP JUMPDEST PUSH1 0x0 DUP3 PUSH2 0x18B0 JUMPI PUSH1 0x1 SWAP1 POP PUSH2 0x196C JUMP JUMPDEST DUP2 PUSH2 0x18BE JUMPI PUSH1 0x0 SWAP1 POP PUSH2 0x196C JUMP JUMPDEST DUP2 PUSH1 0x1 DUP2 EQ PUSH2 0x18D4 JUMPI PUSH1 0x2 DUP2 EQ PUSH2 0x18DE JUMPI PUSH2 0x190D JUMP JUMPDEST PUSH1 0x1 SWAP2 POP POP PUSH2 0x196C JUMP JUMPDEST PUSH1 0xFF DUP5 GT ISZERO PUSH2 0x18F0 JUMPI PUSH2 0x18EF PUSH2 0x135D JUMP JUMPDEST JUMPDEST DUP4 PUSH1 0x2 EXP SWAP2 POP DUP5 DUP3 GT ISZERO PUSH2 0x1907 JUMPI PUSH2 0x1906 PUSH2 0x135D JUMP JUMPDEST JUMPDEST POP PUSH2 0x196C JUMP JUMPDEST POP PUSH1 0x20 DUP4 LT PUSH2 0x133 DUP4 LT AND PUSH1 0x4E DUP5 LT PUSH1 0xB DUP5 LT AND OR ISZERO PUSH2 0x1942 JUMPI DUP3 DUP3 EXP SWAP1 POP DUP4 DUP2 GT ISZERO PUSH2 0x193D JUMPI PUSH2 0x193C PUSH2 0x135D JUMP JUMPDEST JUMPDEST PUSH2 0x196C JUMP JUMPDEST PUSH2 0x194F DUP5 DUP5 DUP5 PUSH1 0x1 PUSH2 0x184D JUMP JUMPDEST SWAP3 POP SWAP1 POP DUP2 DUP5 DIV DUP2 GT ISZERO PUSH2 0x1966 JUMPI PUSH2 0x1965 PUSH2 0x135D JUMP JUMPDEST JUMPDEST DUP2 DUP2 MUL SWAP1 POP JUMPDEST SWAP4 SWAP3 POP POP POP JUMP JUMPDEST PUSH1 0x0 PUSH2 0x197E DUP3 PUSH2 0x1073 JUMP JUMPDEST SWAP2 POP PUSH2 0x1989 DUP4 PUSH2 0x1073 JUMP JUMPDEST SWAP3 POP PUSH2 0x19B6 PUSH32 0xFFFFFFFFFFFFFFFFFFFFFFFFFFFFFFFFFFFFFFFFFFFFFFFFFFFFFFFFFFFFFFFF DUP5 DUP5 PUSH2 0x18A0 JUMP JUMPDEST SWAP1 POP SWAP3 SWAP2 POP POP JUMP INVALID LOG2 PUSH5 0x6970667358 0x22 SLT KECCAK256 0xCE DUP7 MSTORE STOP 0xB1 MUL 0xD6 0xC 0x5E 0xCD 0xC9 SWAP7 0xE5 CALLVALUE BLOCKHASH SWAP8 LOG3 PUSH14 0x3840C1043A2E2CFB8467B3F509CC PUSH5 0x736F6C6343 STOP ADDMOD SIGNEXTEND STOP CALLER "
    },
    "gasEstimates": {
      "creation": {
        "codeDepositCost": "1328800",
        "executionCost": "infinite",
        "totalCost": "infinite"
      },
      "external": {
        "debugTitle()": "infinite",
        "fulfill(bytes32,bytes,bytes,bytes,bytes,uint256,bytes)": "infinite",
        "requestYouTubeAudioData(string)": "infinite"
      }
    },
    "methodIdentifiers": {
      "debugTitle()": "581d869f",
      "fulfill(bytes32,bytes,bytes,bytes,bytes,uint256,bytes)": "7a3c0659",
      "requestYouTubeAudioData(string)": "002b4843"
    }
  },
  "abi": [
    {
      "inputs": [],
      "stateMutability": "nonpayable",
      "type": "constructor"
    },
    {
      "anonymous": false,
      "inputs": [
        {
          "indexed": true,
          "internalType": "address",
          "name": "sender",
          "type": "address"
        },
        {
          "indexed": false,
          "internalType": "string",
          "name": "title",
          "type": "string"
        },
        {
          "indexed": false,
          "internalType": "string",
          "name": "cid",
          "type": "string"
        },
        {
          "indexed": false,
          "internalType": "string",
          "name": "thumbnail",
          "type": "string"
        },
        {
          "indexed": false,
          "internalType": "string",
          "name": "uploadDate",
          "type": "string"
        },
        {
          "indexed": false,
          "internalType": "uint256",
          "name": "duration",
          "type": "uint256"
        },
        {
          "indexed": false,
          "internalType": "string",
          "name": "youtubeUrl",
          "type": "string"
        }
      ],
      "name": "AudioSaved",
      "type": "event"
    },
    {
      "anonymous": false,
      "inputs": [
        {
          "indexed": true,
          "internalType": "bytes32",
          "name": "id",
          "type": "bytes32"
        }
      ],
      "name": "ChainlinkCancelled",
      "type": "event"
    },
    {
      "anonymous": false,
      "inputs": [
        {
          "indexed": true,
          "internalType": "bytes32",
          "name": "id",
          "type": "bytes32"
        }
      ],
      "name": "ChainlinkFulfilled",
      "type": "event"
    },
    {
      "anonymous": false,
      "inputs": [
        {
          "indexed": true,
          "internalType": "bytes32",
          "name": "id",
          "type": "bytes32"
        }
      ],
      "name": "ChainlinkRequested",
      "type": "event"
    },
    {
      "inputs": [],
      "name": "debugTitle",
      "outputs": [
        {
          "internalType": "string",
          "name": "",
          "type": "string"
        }
      ],
      "stateMutability": "view",
      "type": "function"
    },
    {
      "inputs": [
        {
          "internalType": "bytes32",
          "name": "requestId",
          "type": "bytes32"
        },
        {
          "internalType": "bytes",
          "name": "title",
          "type": "bytes"
        },
        {
          "internalType": "bytes",
          "name": "cid",
          "type": "bytes"
        },
        {
          "internalType": "bytes",
          "name": "thumbnail",
          "type": "bytes"
        },
        {
          "internalType": "bytes",
          "name": "uploadDate",
          "type": "bytes"
        },
        {
          "internalType": "uint256",
          "name": "duration",
          "type": "uint256"
        },
        {
          "internalType": "bytes",
          "name": "youtubeUrl",
          "type": "bytes"
        }
      ],
      "name": "fulfill",
      "outputs": [],
      "stateMutability": "nonpayable",
      "type": "function"
    },
    {
      "inputs": [
        {
          "internalType": "string",
          "name": "youTubeUrl",
          "type": "string"
        }
      ],
      "name": "requestYouTubeAudioData",
      "outputs": [
        {
          "internalType": "bytes32",
          "name": "",
          "type": "bytes32"
        }
      ],
      "stateMutability": "nonpayable",
      "type": "function"
    }
  ]
}